:020000040800F2
:1000000020AC002081020008CB1C0008CD1A00089B
:10001000C91C0008B1030008834E0008000000005E
:10002000000000000000000000000000C101000806
:10003000F9030008000000001D020008ED1C000884
:100040009B0200089B0200089B0200089B0200081C
:100050009B0200089B0200089B0200089B0200080C
:100060009B0200089B0200089B0200089B020008FC
:100070009B0200089B0200089B0200089B020008EC
:100080009B0200089B0200089B0200089B020008DC
:100090009B0200089B0200089B0200089B020008CC
:1000A0009B0200089B0200089B0200089B020008BC
:1000B000CD1D00089B0200089B0200089B0200085F
:1000C0009B0200089B0200089B0200089B0200089C
:1000D0009B0200089B0200089B0200089B0200088C
:1000E0009B0200089B0200089B0200089B0200087C
:1000F0009B0200089B0200089B0200089B0200086C
:100100009B0200089B0200089B0200089B0200085B
:100110009B0200089B0200089B0200089B0200084B
:100120009B0200089B0200089B0200089B0200083B
:100130009B0200089B0200089B0200089B0200082B
:100140009B0200089B0200089B020008CD1C0008CF
:100150009B0200089B0200089B0200089B0200080B
:100160009B0200089B0200089B0200089B020008FB
:100170009B0200089B0200089B0200080000000090
:100180009B0200089B0200089B0200089B020008DB
:100190009B0200089B0200089B0200089B020008CB
:1001A00000000000000000009B020008DFF80CD0F7
:1001B00000F0ECF800480047A572000820AC0020D1
:1001C0002C4B19680868B0E8F04F80F30988BFF33A
:1001D0006F8F4FF0000080F311887047000000001F
:1001E00008480068006880F308884FF0000080F33A
:1001F000148862B661B6BFF34F8FBFF36F8F00DF15
:1002000000BF00BF08ED00E0DFF80C00016841F41A
:1002100070010160704700BF88ED00E0EFF30980D6
:10022000BFF36F8F134B1A681EF0100F08BF20ED3D
:10023000108A20E9F04F106009B44FF0500080F3AD
:100240001188BFF34F8FBFF36F8F08F093F94FF012
:10025000000080F3118809BC19680868B0E8F04F05
:100260001EF0100F08BFB0EC108A80F30988BFF3AE
:100270006F8F704750000020EFF30580704700003B
:100280000648804706480047FEE7FEE7FEE7FEE730
:10029000FEE7FEE7FEE7FEE7FEE7FEE7B11D00082A
:1002A000AD0100082DE9F05F0546002092469B460F
:1002B00088460646814640241BE02846414647467C
:1002C000224600F053F853465A46C01A914110D3C3
:1002D00011461846224600F03AF82D1A67EB01083D
:1002E0004F4622460120002100F031F817EB0009AB
:1002F0004E41201EA4F10104DFDC484631462A4667
:100300004346BDE8F09F40EA01039B0703D009E0A4
:1003100008C9121F08C0042AFAD203E011F8013BF1
:1003200000F8013B521EF9D27047D2B201E000F84A
:10033000012B491EFBD270470022F6E710B5134689
:100340000A4604461946FFF7F0FF204610BD202A52
:1003500004DB203A00FA02F1002070479140C2F11C
:10036000200320FA03F3194390407047202A04DB4E
:10037000203A21FA02F00021704721FA02F3D0401E
:10038000C2F120029140084319467047064C074DC0
:1003900006E0E06840F0010394E807009847103455
:1003A000AC42F6D3FFF706FF704003089040030805
:1003B000FEE710B50021002200EB8103C3F8802383
:1003C000491C0F29F8D300214FF40074431883F817
:1003D0001C21491CA142F9D3027042700121817095
:1003E000C0F8BC23017640238371427680F81C2339
:1003F00080F81D13002010BD70477047002200F0E8
:1004000001B8000030B5044601200D4B5D7A002D87
:1004100014D1587A1D54587A03EB800044605C7AFA
:1004200003F108002254587A421C5A723030087086
:100430003A2048702F208870CD70002030BD000019
:10044000E00E0020002100F001B8000010B50146C8
:1004500001200A4B5A7A002A0FD009783039C9B2E4
:1004600003EB81025468002C07D00020506019442F
:100470000872587A401E5872002010BDE00E00200D
:1004800070B5044600F0FEF80546601C02D0044832
:100490000078044400F0F6F8401BA042FAD370BD87
:1004A000180000202DE9F84F0022DFF894A14FF04A
:1004B00003084FF00F090AF1040B012595400B6862
:1004C0002B40AB4272D14C68012C05D0022C03D0DA
:1004D000112C01D0122C10D18668540008FA04F7B0
:1004E000BE43CF68A740374387604668AE430C7968
:1004F000C4F30014944034434460C468570008FABD
:1005000007F5AC438E68BE402643C6604C68022C9B
:1005100001D0122C12D1D40800EB840CDCF820603E
:100520005407E40E09FA04FE26EA0E06D1F810E09C
:100530000EFA04FE4EEA060ECCF820E00468AC4346
:100540000D7905F00305BD40254305604C68E400C6
:100550006FD53C4C256845F480452560246804F43B
:1005600080440094384C22F003052E19D6F8087800
:100570009407250F09FA05F4A743344CA04201D192
:1005800000242EE0324CA04201D1012429E0314C5C
:10059000A04201D1022424E02F4CA04201D1032427
:1005A0001FE02E4CA04202D104241AE041E02C4C62
:1005B000A04201D1052414E02A4CA04201D1062416
:1005C0000FE0294CA04201D107240AE0274CA042A9
:1005D00001D1082405E0264CA04201D1092400E005
:1005E0000A24AC403C43C6F80848DAF800409C4373
:1005F0004D68ED0300D51C43CAF80040DBF800400D
:100600009C434D68AD0300D51C43CBF800400C4D16
:1006100008352C689C434E68F60200D51C432C60BC
:10062000074D0C352C689C434E68B60200D51C4320
:100630002C60521C102AFFF440AFBDE8F88F000078
:10064000003C0140443802400030014000000240BC
:100650000004024000080240000C0240001002406A
:100660000014024000180240001C0240002002401A
:1006700000240240002A01D0816170470904816191
:100680007047000001488068704700001800002093
:10069000D0F8C00202F096B9D0F8C00202F0B2B9A8
:1006A000006804F021B9006804F022B901EB81016F
:1006B00000EBC10090F85C00704701EB810100EB9A
:1006C000C100C06C704710B5044694F8B802012808
:1006D00009D0012084F8B802206804F015F9002040
:1006E00084F8B80210BD022010BD2DE9FE43054676
:1006F000DDE90B7C0A9895F8B842012C1AD04FF02E
:10070000010885F8B88201EB8104002605EBC404DA
:10071000383466712370A4F808C06170E77102F084
:100720007F0984F80290383C5FEA026905D584F8B5
:100730003B8004E00220BDE8FE8384F83B6084F83F
:100740003C008DE88110286804F040F985F8B86213
:10075000F1E7D0F8C00202F0EFB92DE9F003DDE9CE
:10076000078C069F01EB810400EBC40484F83B2056
:1007700084F83F300226002F0AD084F8426000251A
:1007800053B1012B40D0022B18D0032B3ED128E0CF
:10079000032584F84250F2E7012F37D102BBBCF1A8
:1007A000000F02D1012284F8512094F8512012B197
:1007B00084F842602AE084F8425027E02AB194F895
:1007C00050205AB184F8426020E094F8512012B1D0
:1007D00084F842601AE084F8425017E084F84250EE
:1007E00014E02AB194F850205AB184F842600DE028
:1007F00094F8512012B184F8426007E084F8425026
:1008000004E084F8425001E084F84250C4F8448087
:10081000C4F848C084F85C50E56484F8391084F862
:100820005D50027C04F138010068BDE8F00304F07B
:1008300059B92DE9F04104462068064604F060F8F5
:1008400001287ED1206804F084FA002879D020683D
:1008500004F07FFA800203D521684FF4001048614C
:10086000206804F076FAC00203D521684FF48010A6
:100870004861206804F06DFA400103D521684FF00B
:1008800080604861206804F064FA800702D521681E
:1008900002204861206804F05CFA800010D5D6F888
:1008A000400420F02E00C6F840042046FFF7F4FE76
:1008B0000121206804F030FA21684FF000504861AF
:1008C000206804F046FAC00102D5204601F064F821
:1008D000206804F03EFA000705D5204600F0CBF86A
:1008E000216808204861206804F033FA800124D58B
:1008F000206804F0F3F8074600254FF0010815E0E2
:1009000005F00F0108FA01F038420ED006EB451051
:10091000D0F80005000404D5E9B2204600F0F0FD4F
:1009200003E0E9B2204600F016FF6D1CA068A84263
:10093000E6D821684FF000704861206804F009FA99
:1009400000E00FE0C043C0060CD42068816921F0AC
:1009500010018161204601F081F82068816941F031
:1009600010018161BDE8F08170B58AB00446002CA9
:1009700005D0256894F8B902002618B107E00120D7
:100980000AB070BD84F8B862204600F027F8032052
:1009900084F8B902E86BC00500D42661206803F032
:1009A00047FF04F1100128220D466846FFF7ABFC13
:1009B00094E80F0003F0E0FE0121206804F0F6F94E
:1009C000282229466846FFF79EFC94E80F0004F0B1
:1009D0002FF9012084F8B9020020D1E710B586B0C4
:1009E0000446142101A8FFF7A7FC2068B0F1A04F2E
:1009F0002FD100211848026842F00102026000680D
:100A000000F0010000904FF4C050019002200290CD
:100A10000391032004900A20059001A90F48FFF7D5
:100A200041FD0D48001D016841F0800101600A4848
:100A30001430016841F480410160006800F4804096
:100A4000009000220521432000F0C8F8432000F068
:100A5000B7F806B010BD0000303802400000024078
:100A6000D0F8C00202F082B8D0F8C00202F082B81A
:100A7000006804F081B9D0F8C00202F02EB810B5B9
:100A8000044694F8B80201280DD0012084F8B80279
:100A9000206803F000FF0121206803F0DFFE002042
:100AA00084F8B80210BD022010BD10B5044694F8B9
:100AB000B802012809D0012084F8B802206804F0A7
:100AC0008DF9002084F8B80210BD022010BD00008E
:100AD0000248816802781144816070471800002044
:100AE00010B50B48016841F400710160016841F4E0
:100AF00080610160016841F480710160032000F0B1
:100B00008DF8002000F006F800F03EF8002010BD3F
:100B1000003C024010B588B0014600221C2000F0C5
:100B20005DF81C2000F04CF800241448016841F0E6
:100B300001010160006800F00100019002A903A812
:100B400000F024F900F046F940000D49B0FBF1F146
:100B5000491E0C484FF08042026040F2E732C2600A
:100B600041600461846000F075FB10B1012008B0A1
:100B700010BD044800F08BFBF9E70000403802404C
:100B800040420F00800E002082B00C48016841F402
:100B900080410160006800F4804001900748001F18
:100BA000016841F080510160006800F080500190C0
:100BB00000220F21901E02B000F010B8443802400D
:100BC000002809DB00F01F0201219140400980004C
:100BD00000F1E020C0F8001170470000F0B40D46AD
:100BE0000D4B1B68C3F30223C3F10704042C00D987
:100BF0000424191D072901D2002300E0DB1E012671
:100C000006FA04F1491E294099409E40761E16407E
:100C10003143F0BC04F046B90CED00E000F00701F0
:100C2000054A10684FF6FF03184040EA01200349C7
:100C300008431060704700000CED00E00000FA056A
:100C40002DE9F04704460D46002C13D0DFF828911B
:100C5000D9F80000EFB200F00F00A8420CD289F8DA
:100C60000070D9F8000000F00F00A84204D0012065
:100C7000BDE8F0870120FBE72068404E810712D5D0
:100C8000400703D5306840F4E0503060207800071A
:100C900003D5306840F4604030603068A16820F0CF
:100CA000F000084330602078C00731D033496068D5
:100CB0000839012808D002280BD0032809D0096878
:100CC00089070BD40120D3E70968890306D40120E2
:100CD000CEE70968890101D40120C9E7316821F014
:100CE000030101433160FFF7CDFC804641F2883AB1
:100CF00007E0FFF7C7FCA0EB0800504501D903202F
:100D0000B6E73068616800F00C00B0EB810FF0D1FD
:100D1000D9F8000000F00F00A84209D989F8007046
:100D2000D9F8000000F00F00A84201D001209FE791
:100D30002078400705D53068E16820F4E05008438A
:100D400030602078000706D53068216920F46040C3
:100D500040EAC100306000F05DF83168084AC1F334
:100D60000311515CC8400749086007480068FFF755
:100D7000D1FE00207CE70000003C02400838024021
:100D800030940008240000201C0000200F22026084
:100D90000B4A136803F003034360136803F0F00386
:100DA0008360136803F4E053C360126802F4604286
:100DB000D20802610348006800F00F000860704725
:100DC00008380240003C02400148006870470000BB
:100DD0002400002000B5FFF7F7FF04490968044A22
:100DE000C1F38221515CC84000BD000008380240B8
:100DF0004094000800B5FFF7E7FF04490968044A7A
:100E0000C1F34231515CC84000BD000008380240C7
:100E10004094000810B51748006810F00C011648FF
:100E200016D0164B042912D0082911D1114C241FB9
:100E3000216801F03F02216849020AD52068C0F309
:100E40008810A0FB03010023FFF72CFA09E01846E5
:100E500010BD21680023C1F38811A1FB0001FFF739
:100E600021FA2168C1F30141491C4900B0FBF1F0AE
:100E700010BD0000083802400024F40040787D01D5
:100E80002DE9F84F0446002C12D02078DFF8AC830F
:100E9000EB4DC00757D0D8F80000C0F381000128FF
:100EA0000ED0D8F80000C0F38100022803D00EE075
:100EB0000120BDE8F88FE148001F0068400206D518
:100EC000286880033FD5606870BB0120F1E7606847
:100ED000B0F5803F10D0B0F5A02F12D0286820F4D4
:100EE00080302860286820F4802028606068E0B1A5
:100EF000FFF7C8FB064614E0286840F480302860FD
:100F0000F4E7286840F480202860286840F48030A6
:100F10002860EBE7FFF7B6FB801B642801D90320AC
:100F2000C7E728688003F5D50DE0FFF7ABFB064661
:100F300006E0FFF7A7FB801B642801D90320B8E770
:100F400028688003F5D42078BE4F80074FF0000951
:100F500049D5D8F8000010F00C0F0AD0D8F80000DE
:100F6000C0F38100022814D1B448001F0068400279
:100F70000FD42868800704D5E068012801D001203B
:100F800097E72868216920F0F80040EAC10028604E
:100F900029E0E068B8B101203860FFF773FB06462E
:100FA00006E0FFF76FFB801B022801D9032080E7D2
:100FB00028688007F5D52868216920F0F80040EA04
:100FC000C10028600FE0C7F80090FFF75BFB064602
:100FD00006E0FFF757FB801B022801D9032068E7D2
:100FE00028688007F5D42078000729D5DFF84CA2BF
:100FF000954861690AF16C0A89B101210160FFF726
:1010000041FB064606E0FFF73DFB801B022801D9A5
:1010100003204EE7DAF800008007F4D510E0C0F8AE
:101020000090FFF72FFB064606E0FFF72BFB801B27
:10103000022801D903203CE7DAF800008007F4D445
:101040002078400778D500267C4838300068C000FA
:101050000AD47A483830016841F080510160006854
:1010600000F0805000900126DFF8E0B1DBF80000CE
:10107000C00515D4DBF8000040F48070CBF8000008
:10108000FFF700FB824607E0FFF7FCFAA0EB0A003F
:10109000022801D903200CE7DBF80000C005F3D5D6
:1010A000DFF898B1A0680BF1680B012813D0052870
:1010B00018D0DBF8000020F00100CBF80000DBF8CE
:1010C000000020F00400CBF80000A06830B3FFF768
:1010D000D9FA82461DE0DBF8000040F00100CBF8B1
:1010E0000000F2E7DBF8000040F00400CBF800005D
:1010F000DBF8000040F00100CBF80000E5E7FFF767
:10110000C1FAA0EB0A0141F28830814201D90320E3
:10111000CFE6DBF800008007F1D512E0FFF7B2FA66
:1011200082460AE0FFF7AEFAA0EB0A0141F28830EE
:10113000814202D90320BCE60BE0DBF80000800707
:10114000F0D4012E05D13D483830016821F080519E
:101150000160A069B8B3D8F80010C1F38101022979
:1011600048D0022805D0C7F86090FFF78BFA0446F4
:101170003CE0C7F86090FFF785FA064606E0FFF707
:1011800081FA801B022801D9032092E62868800199
:10119000F5D4D4E907010843616AA26A4FF0FF332E
:1011A000890103EB520241EA0241084394F82C10F2
:1011B00040EA01612148001F016001203866FFF705
:1011C00061FA044607E037E0FFF75CFA001B0228EB
:1011D00001D903206DE628688001F5D52CE0FFF7E2
:1011E00051FA001B022801D9032062E62868800119
:1011F000F5D421E001281DD0D8F80000E26900F400
:101200008001914214D1226A00F03F0191420FD136
:1012100047F6C071626A0140914209D1A26A00F4A6
:101220004031914204D1E16A00F07060884203D0FD
:1012300001203EE601203CE600203AE60838024064
:101240000038024000004742800E474200700040D4
:101250007047704710B50446002C03D094F83D0049
:1012600010B107E0012010BD002084F83C002046AA
:1012700000F00CF8022084F83D00211D206800F0E9
:10128000ABFD012084F83D00002010BD70470168CF
:10129000CA6842F00102CA600068816801F0070173
:1012A000062903D0016841F0010101600020704768
:1012B000704770B50446206801694FF00005C943C6
:1012C000890716D4C168C943890712D4E91E016190
:1012D0000120207720688069800703D02046FFF72F
:1012E000E7FF05E0204600F09BF8204600F099F863
:1012F000257720680169C943490718D4C168C943E3
:10130000490714D46FF0040101610220207720689E
:10131000806910F4407F03D02046FFF7C9FF05E045
:10132000204600F07DF8204600F07BF82577206805
:101330000169C943090717D4C168C943090713D410
:101340006FF008010161042020772068C0698007E0
:1013500003D02046FFF7ACFF05E0204600F060F820
:10136000204600F05EF8257720680169C943C90668
:1013700018D4C168C943C90614D46FF010010161C3
:10138000082020772068C06910F4407F03D02046F1
:10139000FFF78EFF05E0204600F042F8204600F0FF
:1013A00040F8257720680169C943C90708D1C16899
:1013B000C943C90704D1891E0161204600F032F8F3
:1013C00020680169C943090609D4C168C9430906EF
:1013D00005D46FF0800101612046FFF739FF2068D6
:1013E0000169C943490609D4C168C943490605D4FE
:1013F0006FF040010161204600F01BF82068016990
:10140000C94389060BD4C168C943890607D46FF064
:10141000200101612046BDE87040FFF71ABF70BD92
:10142000704770470068B0F1804F01D1FFF750BBA3
:101430007047704770B50446002C04D094F839000A
:10144000002510B106E0012070BD84F83850204618
:1014500000F022F8242084F839002068C16821F4C3
:101460000051C160204600F01DFD2068016921F493
:10147000904101612068416921F02A0141612068A1
:10148000C16841F40051C160E563202084F839004F
:1014900084F83A00002070BD10B586B004461421CF
:1014A00001A8FEF749FF1349206888421FD112485E
:1014B000016841F000410160006800F000400090C8
:1014C0000D481038016841F010010160006800F01B
:1014D000100000900320019002210291012103914C
:1014E00004900820059001A90448FEF7DBFF06B030
:1014F00010BD0000007C0040403802400010024057
:101500002DE9F05F064630680D46294600EB411490
:10151000D4F808054FF00408420705EB85004FF0AA
:1015200005094FF0100A06EBC00708D5C4F8088576
:10153000D4F80C0540F00200C4F80C0534E0D4F8EF
:101540000805800603D52020C4F808052CE0D4F84F
:1015500008054FF0080B000710D5D4F80C0540F033
:101560000200C4F80C0587F85D90C4F808A5C4F81B
:1015700008B5E9B2306803F0C7F915E0D4F80805FA
:10158000400511D5D4F80C0540F00200C4F80C0554
:10159000E9B2306803F0B8F9C4F808A587F85DB07F
:1015A0004FF48060C4F80805D4F8080580050ED50E
:1015B00004F5A164606840F002006060E9B2306840
:1015C00003F0A2F94FF400702060BDE8F09FD4F85A
:1015D00008054FF00001C0074FF0010234D0306918
:1015E00030B1B86CD4F81035C3F31203C01AF864E4
:1015F00087F85D20B965C4F8082597F83F0020B149
:10160000022802D003280DD018E0D4F80C0540F0D1
:101610000200C4F80C05E9B2306803F075F9C4F8AB
:1016200008A50BE0D4F8000540F00050C4F8000510
:1016300087F85C20E9B23046FFF78BF817F8500FB7
:1016400080F001003870C0E7D4F80805800740D565
:10165000D4F80C0520F00200C4F80C0597F85D00E2
:101660000223012808D0052809D006280AD0082816
:1016700008D003281AD023E087F85C2020E087F800
:101680005C901DE0B86D401CB865032803D9B965AE
:1016900087F85C8001E087F85C30D4F8000520F022
:1016A000804040F00040C4F8000509E087F85C3055
:1016B000D4F8000520F0804040F00040C4F8000558
:1016C000C4F8083597F85C20E9B23046FFF741F8D6
:1016D0007BE7D4F80805000612D504F5A16460681C
:1016E00040F002006060B86D401CB865062087F8C5
:1016F0005D00E9B2306803F007F98020206064E7FC
:10170000D4F80805C0069ED597F83F00032803D0FB
:1017100070B102280CD01BE0B965D4F80C0540F07C
:101720000200C4F80C05E9B2306803F0EDF80FE0F0
:10173000B965306960B9032087F85D00D4F80C05FD
:1017400040F00200C4F80C05E9B2306803F0DCF8A0
:10175000C4F808A539E72DE9F047026802EB411407
:10176000D4F808254FF0040A520709D5C4F808A593
:10177000D4F80C0540F00200C4F80C05BDE8F08771
:10178000D4F808254FF00003960601EB810200EB28
:10179000C2054FF0020C16D52022C4F8082595F892
:1017A0003D20012AEAD185F83D3085F85CC0D4F8A7
:1017B0000C2542F00202C4F80C250068BDE8F04791
:1017C000C9B203F0A1B8D4F808254FF001065206BB
:1017D00011D585F85DA085F83D60AB6504F5A16481
:1017E000626842F002026260C9B2006803F08CF8DD
:1017F00040202060C2E7D4F8082592050DD504F5F5
:10180000A164626842F002026260C9B2006803F03B
:101810007BF84FF400702060B0E7D4F80825D207B9
:101820000ED0AB6504F5A164626842F0020262600A
:10183000C9B2006803F068F8266085F85D609DE72E
:10184000D4F808254FF0080912074FF005070ED508
:10185000C4F80895D4F80C2542F00202C4F80C250F
:10186000C9B2006803F050F885F85D7086E7D4F8D7
:1018700008254FF01008D20618D5AB65032285F86D
:101880005D2095F83D2022B995F83C200AB985F8ED
:101890003D60D4F80C2542F00202C4F80C25C9B210
:1018A000006803F031F8C4F8088567E7D4F8082524
:1018B00012060FD504F5A164626842F0020262606C
:1018C000C9B2006803F020F8062085F85D0080208A
:1018D000206053E7D4F80825520511D504F5A1641A
:1018E000626842F002026260C9B2006803F00CF85C
:1018F000C4F800804FF48060206085F85D903DE77B
:10190000D4F80825920787D5D4F80C2522F00202D6
:10191000C4F80C2595F85D20012A0AD0032A17D0B7
:10192000042A18D0052A19D0062A1AD0082A18D055
:101930002AE085F85C6095F83F20022A01D0032A4E
:1019400022D195F8512082F0010285F851201BE048
:1019500085F85CC018E085F85CC015E085F85C701F
:1019600012E0AA6D521CAA65032A03D9AB6585F85B
:101970005CA001E085F85CC0D4F8002522F080422C
:1019800042F00042C4F80025C4F808C595F85C2070
:10199000C9B2FEF7DEFEF1E67CB505462C68D4F848
:1019A00040040190D4F840040090009820F02E00EC
:1019B0000090019880070DD50198C00706D0A06956
:1019C00020F00051A1612846FEF762FE009840F029
:1019D000020000900198000735D5009840F00800FB
:1019E00000900198400720D5A869022803D0E86834
:1019F00001280FD012E00198C0F34140022804D022
:101A00000121286803F088F908E00221286803F022
:101A100083F903E04EF66020C4F804042846FFF77B
:101A200023F82846FEF734FE0DE02846FFF718F8A5
:101A3000D4F8400420F02E00C4F8400428688169DE
:101A400041F0005181610198800603D5009840F073
:101A5000200000900098C4F840047CBD2DE9F041BE
:101A6000034618680746016A01F00F06C1F34342B6
:101A7000C1F30A15022A25D1002D23D006EB8601D9
:101A800003EBC104616C00291CD0AAB203F065F914
:101A9000606C28446064E06C2844E06407EB461006
:101AA000D0F81015084A11420CD0D0F8001521F0DA
:101AB000804141F00041C0F8001514F8500F80F04B
:101AC00001002070BDE8F0810000F81FFEE7000073
:101AD00000B585B01AA090E80E00C0688DE80E0031
:101AE00003901B491B48FEF789FC18BB00221849CC
:101AF000194804F039FA10B1FEF77FFC1AE00A2207
:101B000016A1194804F072FA10B1FEF776FC11E044
:101B100004AB0D226946144804F0F6FC049901B1A7
:101B200010B1FEF76AFC05E00F4804F003FA0FA0BD
:101B300003F0A8F90648FEF785FC05B000BD0000DB
:101B400068656C6C6F20776F726C64210000000018
:101B50000100002000940008B800002068656C6C4B
:101B60006F2E747874000000F80200207772697498
:101B7000652073756365737366756C200D0A0000CC
:101B800010B504490448FEF739FC0249491E0870A3
:101B900010BD0000010000200094000800B587B0CF
:101BA0001C2206496846FEF7AEFB0021684605F098
:101BB00035FD0349086007B000BD0000149400081B
:101BC0000800002030B587B0142102A8FEF7B4FB4E
:101BD00000241D48016841F004010160016801F022
:101BE00004010191016841F080010160016801F088
:101BF00080010191016841F002010160016801F07A
:101C000002010191016841F001010160016801F0E8
:101C100001010191016841F010010160006800F0CC
:101C200010000190094D002201212846FEF722FDF7
:101C30000121029103910494059402A92846FEF71C
:101C400031FC07B030BD00003038024000040240D3
:101C500010B50C480A4901604FF4E13141600021A0
:101C60008160C16001610C2242618161C161FFF745
:101C7000E1FB002803D0BDE81040FEF7BEBB10BD5D
:101C8000007C0040A407002010B501220B490C483D
:101C900000F03CFE08B1FEF7B0FB0A49084802F02C
:101CA00087FB08B1FEF7A9FB054802F069FC002894
:101CB00003D0BDE81040FEF7A0BB10BD9945000859
:101CC000E407002030000020FEE770470148FEF7DF
:101CD000B0BD0000BC0B0020FFF752FFFFF7D4FFA0
:101CE000FFF7F6FE642005F06AFBF9E710B5502017
:101CF00080F31188BFF34F8FBFF36F8F07F0A0F908
:101D000018B104494FF080500860002080F311881A
:101D100010BD000004ED00E070B592B0302106A8BF
:101D2000FEF70AFB142101A8FEF706FB00261E4859
:101D3000016841F080510160006800F0805000901F
:101D40001A48016821F4404141F480410160006873
:101D500000F4404000900120069000040790022407
:101D60000C9480010D900F250E9590200F901094EB
:101D70000520119006A8FFF783F808B1FEF73DFB98
:101D80000195029403964FF4A05004904FF48050B4
:101D90000590032101A8FEF753FF002801D0FEF7AC
:101DA0002CFB12B070BD00004038024000700040B3
:101DB0000548016841F47001016003494FF000607B
:101DC000803908607047000088ED00E00148FFF7A7
:101DD00070BA0000800E00202DE9F0410268264D07
:101DE000264E274FDFF89CC0274B4FF08048A84273
:101DF00009D0404507D0B04205D0B84203D0604575
:101E000001D0984203D122F070044A682243A842CC
:101E10001BD0404519D0B04217D0B84215D060450C
:101E200013D0984211D0194CA0420ED0184CA042A9
:101E30000BD0184CA04208D0174CA04205D0174C2C
:101E4000A04202D0164CA04203D122F44074CA68CA
:101E500022434C6922F08002224302608A68C262F7
:101E60000A688262A84201D0984201D109690163DF
:101E700001214161BDE8F081000001400004004003
:101E800000080040000C00400004014000400140F8
:101E9000004401400048014000180040001C004080
:101EA000002000402DE9F041044620680169E26805
:101EB00021F4405111430161A1682069E2690143A5
:101EC0006069104301432068C26849F20C639A4379
:101ED0000A43C26020684169A26921F4407111433C
:101EE0004161E0696549664A1927642532264FF049
:101EF0000008B0F5004F32D02068904201D08842EF
:101F00007ED1FEF777FF01466068830F8200A1FB58
:101F10000701FEF7C7F90146B0FBF5F06FF01802B4
:101F2000504301EB800006EB0010B0FBF5F000F031
:101F3000F002B1FBF5F002EB0012B1FBF5F06FF02F
:101F40001803584301EB800006EB0010B0FBF5F0DE
:101F5000216800F00F0010448860BDE8F08120681F
:101F6000904201D088422CD1FEF744FF01466068C0
:101F70000218A1FB070148EB0803FEF793F901469D
:101F8000B0FBF5F00201B1FBF5F06FF01803584318
:101F900001EB800006EBC000B0FBF5F000F0F800AC
:101FA00002EB4002B1FBF5F0584301EB800006EB79
:101FB000C000B0FBF5F0216800F007001044886015
:101FC000CBE7FEF707FF014660680218A1FB070197
:101FD00048EB0803FEF766F90146B0FBF5F0020195
:101FE000B1FBF5F06FF01803584301EB800006EBEE
:101FF000C000B0FBF5F000F0F80002EB400200E09A
:102000000EE0B1FBF5F0584301EB800006EBC00099
:10201000B0FBF5F0216800F00700104488609CE7F1
:10202000FEF7D8FE01466068830F8200A1FB07011E
:10203000FEF738F90146B0FBF5F06FF01802504397
:1020400001EB800006EB0010B0FBF5F000F0F002B1
:10205000B1FBF5F002EB0012B1FBF5F06FF01803E5
:10206000584301EB800006EB0010B0FBF5F021684F
:1020700000F00F00104488606FE70000001401407A
:102080000010014070B504460D46204600F0F3F8FC
:10209000A0F57F42FF3A05D004EB800245F40041F1
:1020A000C2F88013C0B270BD7FB51E460125002462
:1020B000CDE90051CDE9022402232A46314600F041
:1020C0008CFD04B0002070BD7FB50C4608991E46FB
:1020D00090F81D53002D00D00021CDE902210125EB
:1020E000CDE9005402230022314600F076FD04B011
:1020F000002070BD10B500F05CFC002010BD82789F
:10210000012A07D102220274012242740022428273
:102110008182C2820022114600F010B87FB51E46AF
:1021200000240125CDE90051CDE9022423462A46A9
:10213000314600F052FD04B0002070BD70B5044679
:102140000125A0780126012802D0022820D10DE027
:10215000A160A28126760220A0700321C4F8D413C6
:102160000022D4F8CC0305F095F911E0204600F0E8
:10217000EDF80546002025B1032D05D0022D06D02F
:1021800006E0A670207603E0A670207600E0A67038
:10219000284670BD7FB50C4608991E4690F81D5321
:1021A000002D00D00021CDE902210125CDE9005408
:1021B00000231A46314600F010FD04B0002070BD27
:1021C0007FB5154600230824CDE90031CDE902434F
:1021D0001A46294600F001FD04B0002070BDFEF74C
:1021E0004FB970B50546002005F54D7517E000EBB9
:1021F000800404EBC00405EB44040A3466798E4283
:1022000001D0FF2909D1A679964201D0FF2A04D135
:10221000E4799C4206D0FF2B04D0401CC0B20228B7
:10222000E5D3FF2070BD0B2907D200EB8100B0F889
:102230008013C1F30E01C0F880130020704730B442
:102240000C4602998578012D10D144F08004047465
:102250000624447442820324B4EB122F03D140F2CB
:102260000942828201E000228282C1820A4630BC99
:102270001946FFF763BF0146002001EB8002B2F868
:102280008023120405D5401CC0B20B28F5D34FF6AD
:10229000FF7070470A8803781A440A80017808445E
:1022A0007047F8B504460E4604F11C052B464FF462
:1022B0000072002120460096FFF7C1FF071E05D1DE
:1022C0003246294604F54D7001F0A3FD3846F8BDAD
:1022D000F8B504460D4604F58E731F464FF4807220
:1022E000002120460095FFF7AAFF061E05D12A46C9
:1022F000394604F2223001F0E4FD3046F8BDF8B56D
:1023000015461C4641F4407200F58E731F460021AD
:102310000094FFF794FF061E04D122462946384652
:1023200001F01EFE3046F8BD01460020002906D00F
:10233000012905D0022905D0032905D002207047C4
:102340000220704701207047022070472DE9F84FA6
:1023500004460125207E07270326AB464FF00B08D5
:102360004FF009094FF00D0A0C280FD2DFE800F0FA
:102370000E060F404C7785BFCBFAEEED627904F183
:1023800010012046FFF71CFF0220207644E161790E
:10239000204600F09EFB012804D004281DD002280E
:1023A0001BD039E1207C00F08000E18A31B1802827
:1023B00002D00520207604E0267602E0802809D0AD
:1023C00027763146C4F8D4630022D4F8CC0305F054
:1023D00061F821E184F81890F3E784F81880314619
:1023E000C4F8D4630022D4F8CC0305F053F813E109
:1023F000D4F8BC03E0812379A2892046A168FFF7C5
:102400008DFE0420207607E12179204600F061FB53
:102410000746012F09D184F818903146C4F8D463D7
:102420000022D4F8CC0305F035F8052F02D0042F94
:102430000AD0F1E003253146C4F8D4630022D4F871
:10244000CC0305F027F8E7E084F818803146C4F89B
:10245000D4630022D4F8CC0305F01CF8DCE0CDF8FE
:1024600000B06379A2892046A168FFF793FED4F8F3
:10247000BC03E08106202076CEE06179204600F0A2
:1024800028FB012806D005280ED0022818D00428E1
:1024900021D0C1E027763146C4F8D4630022D4F8B5
:1024A000CC0304F0F7FFB7E00C202076032531467B
:1024B000C4F8D4630022D4F8CC0304F0EBFFABE003
:1024C000052020763146C4F8D4630022D4F8CC032A
:1024D00004F0E0FFA0E084F8188002253146C4F83B
:1024E000D4630022D4F8CC0304F0D4FF94E000229B
:1024F000237911462046FFF711FED4F8BC03E08192
:102500000820207688E02179204600F0E2FA0128B0
:1025100004D004280ED005281AD07DE084F818A035
:1025200000253146C4F8D4630022D4F8CC0304F06B
:10253000B1FF71E084F818803146C4F8D4630022FA
:10254000D4F8CC0304F0A6FF66E046E018E009E00A
:1025500003253146C4F8D4630022D4F8CC0304F038
:1025600099FF59E0CDF800B000226379114620466A
:10257000FFF710FED4F8BC03E0810A2020764BE080
:102580006179204600F0A5FA012804D002280ED077
:10259000042817D040E0002584F818A03146C4F87C
:1025A000D4630022D4F8CC0304F074FF34E084F840
:1025B00018903146C4F8D4630022D4F8CC0304F058
:1025C00069FF29E084F818803146C4F8D4630022FA
:1025D000D4F8CC0304F05EFF1EE0607E401CC0B265
:1025E0006076022807D8204600F0EEFA84F818B08A
:1025F00084F802B010E0D4F8C823062120469047A2
:102600000020607606A002F03DFC07A002F03AFC34
:1026100009A002F037FC02252846BDE8F88F00002B
:102620004552524F523A2000436F6E74726F6C20C5
:102630006572726F720000000A0000002DE9FE430F
:1026400004460126607805254FF00008B14604F5E0
:102650008E77082829D2DFE800F0042942717A83B6
:10266000B2D908212046FFF733FE00281DD194F887
:102670002903A07184F8019094F81D13CDE9001886
:10268000029094F81C3321798022204601F0B6FB99
:10269000A07994F81D13CDE90018029094F81C332A
:1026A00061790022204601F0A9FBD0E012212046EA
:1026B000FFF70EFE0028F8D1B4F82C1365A002F045
:1026C000E1FB67A002F0DEFBB4F82A1365A002F07C
:1026D000D9FB63A002F0D6FB02206070B7E00121B5
:1026E000204601F023FF0028DFD10220FFF777FD0D
:1026F000494684F81C935EA002F0C4FB58A002F087
:10270000C1FB03206070A17994F81D03CDE901811C
:10271000009094F81C3321798022204601F06EFB52
:10272000A07994F81D13CDE90018029094F81C3399
:1027300061790022204601F061FB88E009212046F2
:10274000FFF7AFFD0028B0D1042060707FE0B4F83F
:1027500036132046FFF7A5FD002878D1657076E096
:1027600094F830134FF00608C1B1FF233A462046D3
:10277000FFF7C5FD00286AD1394643A002F082FB6D
:1027800037A002F07FFB84F801802946C4F8D453B7
:102790000022D4F8CC0304F07DFE58E03FA002F004
:1027A00071FB2FA002F06EFB84F801802946C4F86B
:1027B000D4530022D4F8CC0304F06CFE47E094F824
:1027C00031134FF0070881B1FF233A462046FFF747
:1027D00096FD00283BD1394635A002F053FB20A0DE
:1027E00002F050FB84F8018031E035A002F04AFB92
:1027F0001BA002F047FB84F801802946C4F8D4539B
:102800000022D4F8CC0304F045FE20E094F8321303
:1028100071B1FF233A462046FFF771FDB8B939463A
:102820002BA002F02FFB0EA002F02CFB00260EE0E6
:102830002CA002F027FB0AA002F024FB0026294668
:10284000C4F8D4530022D4F8CC0304F023FE30465D
:10285000BDE8FE835049443A202578680000000016
:102860000A0000005649443A20257868000000001C
:102870004164647265737320282325642920617381
:102880007369676E65642E004D616E756661637471
:1028900075726572203A2025730000004D616E75D7
:1028A0006661637475726572203A204E2F41000094
:1028B00050726F64756374203A2025730000000025
:1028C00050726F64756374203A204E2F41000000EF
:1028D00053657269616C204E756D626572203A2095
:1028E0002573000053657269616C204E756D6265D9
:1028F00072203A204E2F410001780B2905D1D0F8E3
:102900007813002901D089690847704730B58BB02A
:1029100004460D46002C2BD084F8C0230020C4F8B8
:102920007803C4F87C032046FDF743FD0DB1C4F8DD
:10293000C853154807AD90E80E00C0680EC50A9050
:10294000002107A804F048FDC4F8CC031C220E495E
:1029500010316846FDF7D7FC2146684604F05EFE5C
:10296000C4F8D003204600F0BFF800200BB030BD03
:1029700006A002F087FA07A002F084FA0AA002F08B
:1029800081FA0220F2E70000284003084552524F26
:10299000523A2000496E76616C696420486F737406
:1029A0002068616E646C65000A00000090F81F03E7
:1029B000704710B5D0F8C403FDF785FEBDE81040A0
:1029C000FFF7B2BC70B5044620780125002804D07A
:1029D00094F81F03012809D00AE084F81E53D4F8A4
:1029E000C8232AB104212046904701E0022020702C
:1029F0002946C4F8D4530022D4F8CC0304F04AFD8D
:102A0000002070BD10B50446204600F0DDF82179A5
:102A10002046FFF708FC61792046FFF704FC002000
:102A200084F81E03D4F8C82312B10521204690472C
:102A30000AA002F027FA0FA002F024FA204600F0C4
:102A4000BAF8032020700121C4F8D4130022D4F86E
:102A5000CC0304F01FFD002010BD000055534220A0
:102A600044657669636520646973636F6E6E656340
:102A7000746564000A00000010B590F8C003C82017
:102A8000FDF7FEFC002010BDD0F8C403FDF715BE15
:102A900010B50124D0F8C403FDF705FE20B10128CC
:102AA00005D0022803D101E0002400E002242046E2
:102AB00010BDD0F8C40301EB810100EBC10090F818
:102AC0003B10002902D090F85000704790F8510058
:102AD0007047D0F8C403FDF7E9BDD0F8BC13491C1A
:102AE000C0F8BC13FFF708BF10B5044694F8C00344
:102AF00001281CD10F48C0F8C042C4F8C4034FF0ED
:102B0000A0410160082181600121C16000210161B3
:102B100002228261C161FDF727FF08B1FDF76DFC5C
:102B20000448FDF7BDFD0146204600F030F80020C6
:102B300010BD0000BC0B002010B50121C0F8D4135B
:102B4000D0F8CC03002204F0A5FC002010BDFEB597
:102B5000DDE908650A9CCDE900650294D0F8C4035C
:102B6000FDF7C3FDBDE8FE40FFF7DEBB002180F8A6
:102B70001F137047012180F81F13704710B5D0F85C
:102B8000C403FDF775FFBDE81040FFF7CDBBC0F8EB
:102B9000BC137047D0F8C40301EB810100EBC10006
:102BA00090F83B10002902D080F8502001E080F816
:102BB00051200020704710B5D0F8C403FDF75FFF27
:102BC000BDE81040FFF7B0BB10B5D0F8C403FDF767
:102BD0006CFFBDE81040FFF7A7BB2DE9FF41DDE921
:102BE0000B760A9D0D9CCDE9017600950394D0F8F3
:102BF000C403FDF7B2FD04B0BDE8F041FFF794BB9C
:102C000003460220D3F87813C969002A05D0012AA7
:102C100007D189791846FFF772BAC9791846FFF7C4
:102C20006EBA7047D0F87803C069054950304160EA
:102C3000044981600121017081700020704700000B
:102C400055534243504030202DE9F84F05460127A7
:102C5000D5F87803C4690226B84694F850004FF0BE
:102C60000B0B4FF0090A4FF007090C2814D2DFE8CC
:102C700000F01306144F5A909DE4F3F1F0EF84F83E
:102C8000611084F85060CDF8008063791F2204F150
:102C900054012846FFF718FA3AE161792846FFF710
:102CA00018FF012804D002281BD0052824D02FE1CA
:102CB000E06D58B194F86000000603D5032084F855
:102CC000500005E0052084F8500001E084F85090A1
:102CD0003146C5F8D4630022D5F8CC0304F0DAFB02
:102CE00016E184F850803146C5F8D4630022D5F847
:102CF000CC0304F0CFFB0BE10A2084F850003146EE
:102D0000C5F8D4630022D5F8CC0304F0C3FBFFE080
:102D1000237962892846D4F88C10FFF7C5F904207E
:102D200084F85000F4E021792846FFF7D2FE01280C
:102D300002D0052822D0EBE06289E06D904207D9ED
:102D4000D4F88C101144C4F88C10801AE06501E0AE
:102D50000020E065E06D30B123792846D4F88C106E
:102D6000FFF7A2F9D4E084F850903146C5F8D46357
:102D70000022D5F8CC0304F08DFBC9E084F850A004
:102D80003146C5F8D4630022D5F8CC0304F082FBA9
:102D9000BEE0CDF80080637922892846D4F88C10F3
:102DA000FFF792F9062084F85000B1E061792846D7
:102DB000FFF78FFE012804D0022826D0052830D046
:102DC000A6E02289E06D904207D9D4F88C10114416
:102DD000C4F88C10801AE06501E00020E065E06D29
:102DE00040B1CDF8008063792846D4F88C10FFF705
:102DF0006BF901E084F850903146C5F8D4630022A5
:102E0000D5F8CC0304F046FB82E0052084F850009E
:102E10003146C5F8D4630022D5F8CC0304F03AFB60
:102E200076E00A2084F850003146C5F8D4630022C9
:102E3000D5F8CC0304F02EFB6AE023790D2204F1CF
:102E400078012846FFF730F9082084F850005FE049
:102E500056E037E028E0FFE721792846FFF739FE02
:102E6000012802D0052814D052E084F8508084F85C
:102E70005280284600F0BCF848B102273146C5F818
:102E8000D4630022D5F8CC0304F004FB40E0002713
:102E9000F4E784F850A03146C5F8D4630022D5F891
:102EA000CC0304F0F7FA33E000222846FFF7A8FE2F
:102EB00010B1042803D02BE084F8509028E084F867
:102EC00050B025E001222846FFF79AFE10B10428F1
:102ED00013D01DE061792846FFF7EBFDC0F101003A
:102EE000C2B261792846FFF755FE217900222846B3
:102EF000FFF750FE84F850A00AE084F850B007E0D5
:102F0000284600F013F80746380001D184F85080B5
:102F10003846BDE8F88FA1220274FE2242740022D6
:102F2000428282820122C282FFF708B92121017404
:102F3000FF214174002141828182C1820022114619
:102F4000FFF7FCB870B50246D2F87803C4690125D2
:102F5000A07B002804D0022802D0032833D12BE024
:102F600021461046FFF7D7FF05460026032D01D165
:102F700026600025FDB92068022801D9022101E060
:102F8000C1B2491C216011A001F07CFF17A001F023
:102F900079FF002102200BE001EB810202EBC1026C
:102FA00004EB820282F8920082F8C160491CC9B227
:102FB00022688A42F0D806E000211046FFF79FF809
:102FC00008B9E07BA073284670BD00004E756D62A5
:102FD0006572206F6620737570706F7274656420FF
:102FE0004C554E3A20256C75000000000A00000088
:102FF00070B5D0F87813CC6901252179FFF744FD2D
:103000000D2801D0022514E00B49A06F88420FD192
:10301000A16DE06F88420CD194F8840020B10128A2
:1030200007D0022802D004E0002502E0022500E0DB
:103030000225284670BD00005553425310B5144672
:10304000D0F87833DB6900780B2801D0022010BD5E
:1030500001EB810000EBC10003EB800190313422D1
:103060002046FDF750F9002010BD70B50546D5F893
:103070007803C46900266179002907D02846FFF744
:1030800039F861792846FFF7CEF86671217939B1B0
:103090002846FFF72FF821792846FFF7C4F8267154
:1030A000D5F87803C06920B103F09AFED5F878030B
:1030B000C661002070BDFEB505460224D5F8780330
:1030C0005023062201792846FFF78BF80146FF2995
:1030D0007DD0284601F0B0F9E00104F005F9D5F8FB
:1030E0007813C861044695F8200300EB800101EBDA
:1030F000C00005EB400090F84A0301060CD5E071D2
:1031000095F8200300EB800101EBC00005EB4000C7
:10311000B0F84C0360810BE0A07195F8200300EB40
:10312000800101EBC00005EB4000B0F84C032081AA
:1031300095F8200300EB800101EBC00005EB400097
:1031400090F8520301060CD5E07195F8200300EBCE
:10315000800101EBC00005EB4000B0F85403608132
:103160000BE0A07195F8200300EB800101EBC0009B
:1031700005EB4000B0F8540320810020A4F8F800CB
:10318000A4F8FA0020736073A073A1792846FEF7B3
:1031900079FF6071E1792846FEF774FF20712846B7
:1031A000FFF740FD682104F19000FDF7C5F8208984
:1031B00095F81D130226CDE90016029095F81C33F0
:1031C000A2796179284600F019FE608900E016E0D6
:1031D00095F81D13CDE90016029095F81C33E2799D
:1031E0002179284600F00AFE217900222846FFF7BF
:1031F000D1FC617900222846FFF7CCFC0024204650
:10320000FEBD00002DE9F84F0546D5F87803C469E6
:1032100001200090207B002802D001287ED1E9E225
:10322000B4F8F800216801264FF004094FF00008B7
:10323000884274D200EB800101EBC00004EB8000F7
:1032400080F89160B4F8F810022701EB810000EBE0
:10325000C10004EB80024FF0050A92F890000928A3
:103260001AD2DFE800F0051984FC1AFB1919FA00DC
:10327000F6A001F007FEF8A001F004FEB4F8F80093
:1032800000EB800101EBC00004EB800080F890901F
:10329000D5F8BC03C4F8FC0092E29F32C9B22846BC
:1032A00000F0C4FB80465FEA080036D1B4F8F800AD
:1032B00000EB800101EBC00004EB8001A231E7A02C
:1032C00001F0E0FDE4A001F0DDFDB4F8F80000EB52
:1032D000800101EBC00004EB8001AB31E5A001F0FF
:1032E000D1FDDDA001F0CEFDB4F8F80000EB8001C7
:1032F00001EBC00004EB8001BC31E4A001F0C2FD91
:10330000D5A001F0BFFDB4F8F80000EB800101EB9F
:10331000C00004EB800080F8907001E058E258E2B1
:10332000B8F1020F03D0B8F1040F0BD048E2B4F8A3
:10333000F80000EB800101EBC00004EB800080F896
:1033400090A03DE2B4F8F80000EB800101EBC00072
:1033500004EB800080F89060B4F8F80000EB800186
:1033600001EBC00004EB800080F8917028E2C9B244
:10337000284600F084FC83465FEA0B0034D1B4F8A1
:10338000F80000EB800101EBC00004EB800090F836
:10339000921041B180F8C160C2A001F073FDAEA0EF
:1033A00001F070FD01E080F8C180B4F8F80003215D
:1033B00000EB800202EBC00004EB800080F890106C
:1033C000B4F8F80000EB800101EBC00004EB8000D2
:1033D00080F89180B4F8F80000EB800101EBC000A8
:1033E00004EB800080F89280BBF1020F03D0BBF1A8
:1033F000040F3AD0E4E1B4F8F80000EB800101EBEF
:10340000C00004EB800090F89210022908D080F8E8
:10341000C160A9A001F036FD8FA001F033FD01E0ED
:1034200080F8C180B4F8F80000EB800101EBC00027
:1034300004EB800080F890A0B4F8F80000EB800165
:1034400001EBC00004EB800080F89160B4F8F80054
:1034500000EB800101EBC00002E0AEE194E019E076
:1034600004EB800080F89270AAE1B4F8F80000EB59
:10347000800101EBC00004EB800080F89060B4F89C
:10348000F80000EB800101EBC00004EB800080F845
:10349000917095E19432C9B2284600F06AFB20B1E0
:1034A000022851D004285AD08AE1B4F8F80000EB81
:1034B000800101EBC00004EB800090F8C1100129ED
:1034C00029D150F8941F8088414381A001F0DAFC93
:1034D00061A001F0D7FCB4F8F80000EB800101EB2B
:1034E000C00004EB8000D0F8941081A001F0CAFC69
:1034F00059A001F0C7FCB4F8F80000EB800101EB23
:10350000C00004EB8000B0F898107EA001F0BAFC77
:1035100051A001F0B7FCB4F8F80000EB800101EB1A
:10352000C00004EB800080F89060B4F8F80000EB75
:10353000800101EBC00004EB800080F8918034F83A
:10354000F80F401C20803BE1B4F8F80000EB80014C
:1035500001EBC00004EB800080F890A030E1B4F8EB
:10356000F80000EB800101EBC00004EB800080F864
:103570009060B4F8F80000EB800101EBC00004EBB0
:10358000800080F891701BE19C32C9B2284600F09F
:1035900033FB80465FEA08004ED1B4F8F80000EB38
:1035A000800101EBC00004EB800090F89C1006291C
:1035B00001D002290BD1D5F8BC23D4F8FC30D21AA3
:1035C00042F210739A4202D280F89070F8E052A052
:1035D00001F058FC20A001F055FCB4F8F80000EB15
:1035E000800101EBC00004EB800090F89D104EA01C
:1035F00001F048FC18A001F045FCB4F8F80000EB1D
:10360000800101EBC00004EB800090F89E104DA0FB
:1036100001F038FC10A001F035FCB4F8F80000EB24
:10362000800101EBC00004EB800080F89060B4F8EA
:10363000F800401CA4F8F800B8F1020F03D0B8F16C
:10364000040F01D0BCE08FE0A2E000004C554E20FA
:103650002325643A200000000A000000496E7175BD
:103660006972792056656E646F7220203A20257346
:1036700000000000496E71756972792050726F64A4
:10368000756374203A20257300000000496E71753F
:103690006972792056657273696F6E203A202573BE
:1036A000000000004D534320446576696365207235
:1036B00065616479000000004D53432044657669DC
:1036C0006365204E4F5420726561647900000000EC
:1036D0004D5343204465766963652063617061637F
:1036E000697479203A20256C7520427974657300DD
:1036F000426C6F636B206E756D626572203A202597
:103700006C750000426C6F636B2053697A652020F2
:10371000203A20256C75000053656E7365204B655B
:103720007920203A202578004164646974696F6EBD
:10373000616C2053656E736520436F6465203A2089
:10374000257800004164646974696F6E616C205370
:10375000656E736520436F6465205175616C6966A1
:103760006965723A20257800AFF2B40001F08AFB57
:10377000AFF21C1001F086FBB4F8F800082100EB52
:10378000800202EBC00004EB800080F8901017E08C
:10379000B4F8F80000EB800101EBC00004EB8000FE
:1037A00080F89060B4F8F80000EB800101EBC000F5
:1037B00004EB800080F8917002E0491CA4F8F81036
:1037C0004946C5F8D4930022D5F8CC0303F062FE35
:1037D00012E0A4F8F88026734946C5F8D493002275
:1037E000D5F8CC0303F056FED5F8C82302212846AD
:1037F000904701E0002000900098BDE8F88F00009D
:103800002DE9F84F0546D5F87803C069012601EB8C
:10381000810202EBC10200EB8204B14694F89000F1
:103820004FF004084FF0080A052844D0002205276D
:10383000062802D0072879D11EE0002300921A46FC
:10384000284600F057F920B1022806D0042807D0F6
:1038500009E084F89090002605E084F8907002E07A
:1038600084F890A002264146C5F8D4830022D5F8FA
:10387000CC0303F00FFE59E0002300921A462846BD
:1038800000F022FA20B1022806D0042807D009E06F
:1038900084F89090002605E084F8907002E084F8A7
:1038A00090A002264146C5F8D4830022D5F8CC0367
:1038B00003F0F0FD3AE004F19C02284600F09CF988
:1038C000074638001BD190341AA0217B01F0DAFAA8
:1038D0001CA001F0D7FA617B1BA001F0D3FA19A05C
:1038E00001F0D0FAA17B1FA001F0CCFA15A001F0E5
:1038F000C9FA84F8009002206070903C0226022FE2
:1039000002D0042F07D009E01FA001F0BBFA0DA0E0
:1039100001F0B8FA02E084F890A002264146C5F80A
:10392000D4830022D5F8CC0303F0B4FD3046BDE8C3
:10393000F88F000053656E7365204B657920203A3F
:10394000202578000A0000004164646974696F6E84
:10395000616C2053656E736520436F6465203A2067
:10396000257800004164646974696F6E616C20534E
:10397000656E736520436F6465205175616C69667F
:103980006965723A202578004D5343204465766975
:103990006365204E4F542072656164790000000019
:1039A0002DE9F8430446089F8846D4F87803C56992
:1039B00094F81E0300280CD020780B2809D108EBBE
:1039C000880000EBC80005EB800090F890100129FA
:1039D00002D00220BDE8F8830621297380F89010F8
:1039E000A5F8FA8041462046009700F083F8D4F805
:1039F000BC6340F271204FF00109474308E0D4F85E
:103A0000BC03801BB0EB071F0CD894F81E0348B111
:103A100041462046FFF7F4FE0128F0D085F80C90CF
:103A20000020D7E785F80C900220D3E72DE9F0417C
:103A3000034615460226D3F87803C46900274FF0E1
:103A4000010894F85200012802D002284FD11EE04C
:103A500024205334C4F80900802262730A22E273DE
:103A60002761676127831222227449016174A77458
:103A7000E7742075677504F8038C022004F8010CC4
:103A8000533C04F11000C4F88C0001262FE01846C6
:103A9000FFF7DAF80646300029D122212846FCF744
:103AA0004BFC54F88C0F007800F01F006870206801
:103AB00000784009287054F88C094078000602D537
:103AC00085F8028000E0AF7054F88C0F8168C5F86B
:103AD0000310C068C5F8070021681022103105F1F5
:103AE0000C00FCF710FC2068006AC5F81D00304689
:103AF000BDE8F0817FB505461E460220D5F8782343
:103B0000D46994F85220012A07D0022A2FD104B098
:103B10002846BDE87040FFF797B85C340899A08F3D
:103B200048432060802020710A20A0715C3C102155
:103B300004F16300FCF700FC28205034E0749DF889
:103B40000B0060759DF80A00A0759DF80900E075EE
:103B50009DF8080020769DF82100A0769DF82000B1
:103B6000E076012020700220A070E663012004B0FE
:103B700070BD70B5034616460125D3F87803C469B5
:103B800094F85200012802D0022833D119E008200D
:103B9000E065802084F860000A2084F8620010212B
:103BA00004F16300FCF7C8FB25205034E0740120C9
:103BB00020700220A070503C04F11000C4F88C006A
:103BC00018E01846FFF740F80546280012D154F8CF
:103BD0008C0FC178827841EA022142780078120481
:103BE00042EA0060014331602068C179807941EA8E
:103BF0000020B080284670BD70B503460E461546BD
:103C00000220D3F87813CC6994F85220012A14D0FA
:103C1000022A11D131461846FFF716F800280BD1B9
:103C200054F88C1F897801F00F0129702168097BF5
:103C300069702168497BA97070BD0E25E5658020FB
:103C400084F860000A2084F86200102104F1630007
:103C5000FCF772FB03205034E074700120750020E3
:103C60006075A075E5752076012020700220A07097
:103C7000503C04F11000C4F88C00012070BD70B5F8
:103C800003460220D3F87823D46994F85220012AFD
:103C900006D0022A17D1BDE870401846FEF7D4BFFF
:103CA0000025E56584F860500A2084F86200102140
:103CB00004F16300FCF740FB5034E57401202070F0
:103CC0000220A070012070BD7FB505461E4602206F
:103CD000D5F87823D46994F85220012A07D0022A13
:103CE0002FD104B02846BDE87040FEF7ADBF5C346C
:103CF0000899A08F48432060002020710A20A071FD
:103D00005C3C102104F16300FCF716FB2A205034C0
:103D1000E0749DF80B0060759DF80A00A0759DF891
:103D20000900E0759DF8080020769DF82100A07636
:103D30009DF82000E076012020700220A070E6634C
:103D4000012004B070BD00207047D0F87823D269FC
:103D500000780B2808D101EB810000EBC10002EBD9
:103D6000800090F8910008B1002070470120704752
:103D70002DE9F8430446089F8846D4F87803C569BE
:103D800094F81E0300280CD020780B2809D108EBEA
:103D9000880000EBC80005EB800090F89010012926
:103DA00002D00220BDE8F8830721297380F8901023
:103DB000A5F8FA80414620460097FFF785FFD4F822
:103DC000BC6340F271204FF00109474308E0D4F88A
:103DD000BC03801BB0EB071F0CD894F81E0348B13E
:103DE00041462046FFF70CFD0128F0D085F80C90E5
:103DF0000020D7E785F80C900220D3E7FEB5DDE977
:103E000008650A9CCDE900650294FEF7A0FE00203B
:103E1000FEBD2DE9F84304460E46002708782070C1
:103E2000487860708878CB7840EA03206080087911
:103E30002071487960718879A071C879E071087A39
:103E40002072092A3BD90920009031E069463046AA
:103E5000FEF720FA06467078042829D107EB870080
:103E600000EBC70004EB4008C14608F10A083146E0
:103E7000404600F062F800250FE069463046FEF744
:103E800009FA06467078052807D109EBC5001430F9
:103E9000314600F042F86D1CEDB298F80400A842DB
:103EA00004D96088BDF800108842E6D87F1CFFB2B4
:103EB000022F04D26088BDF800108842C6D8BDE841
:103EC000F88310B50B7803704B7843708B78CC78FF
:103ED00043EA042343800B7903714B7943718B7957
:103EE0008371CB79C371082A16D90A7A4B7A42EAD0
:103EF000032202818A7ACB7A42EA032242810A7B38
:103F00004B7B42EA032282818A7B8273CA7BC27323
:103F10000A7C0274497C417410BD0A7802704A78A8
:103F200042708A788270CA78C2700A794B7942EA04
:103F3000032282808979817170470A7802704A78F9
:103F400042708A788270CA78C2700A7902714A799E
:103F500042718A798271CA79C271097A0172704795
:103F600010B54378032B11D103789C1E944200D8DE
:103F70009A1E93B2801C002204E0845C01F8014B7D
:103F8000921C92B29A42F8D30020087010BD000033
:103F90002DE9FF4704460222039200212046FEF746
:103FA00005FD30B9207820B12078032801D0032006
:103FB00020702078012705250D264FF000084FF0CE
:103FC00008090C281AD2DFE800F0061A20EE195C66
:103FD000ED798BA2BFEC94F81E0300280ED0277059
:103FE000C820FEF7FCF82046FEF7C8FDC4F8D473DD
:103FF00000223946D4F8CC0303F04CFA27E194F8B8
:104000001F030128FAD1227021E193A000F03AFFAA
:1040100096A000F037FF6420FEF7E1F82046FEF797
:1040200037FD84F81D03257000212046FEF72AF88D
:10403000607180212046FEF725F82071A17994F85F
:104040001D23CDE900280291014694F81C338022FB
:104050002046FFF7D3FEA07994F81D13CDE9001890
:10406000029094F81C33617900222046FFF7C6FEC7
:104070003946C4F8D4730022D4F8CC0303F00AFA0A
:10408000E5E02046FEF7DAFA0028B7D178A000F084
:10409000F9FE76A000F0F6FE84F8208394F833034E
:1040A000012802D007202070D1E076A000F0EAFEBF
:1040B0006EA000F0E7FE84F80090C8E0D4F8C823B2
:1040C000002A9BD001212046904784F80090294681
:1040D000C4F8D4530022D4F8CC0303F0DBF9B6E0E3
:1040E00094F83913204600F02FFA38B909202070CF
:1040F0006EA000F0C7FE5DA000F0C4FE3946C4F813
:10410000D4730022D4F8CC0303F0C4F99FE094F8F0
:104110003B034FF00A0580060CD50121204600F034
:1041200021FA40B968A000F0ADFE50A000F0AAFE50
:10413000257000E025703946C4F8D4730022D4F805
:10414000CC0303F0A7F982E0D4F87C0310B3C4F8E1
:10415000788394F8432304EB8100D0F87403037947
:10416000934201D1C4F87803491CC9B20029F2D0A6
:10417000D4F8780348B3816820468847A0B12670F8
:10418000D4F87803016858A000F07CFE37A000F056
:1041900079FE21E05CA000F075FE34A000F072FE14
:1041A0001AE042E021E047E006202070D4F87803CE
:1041B00001685DA000F066FE2CA000F063FED4F85C
:1041C000C82303212046904706E026705BA000F03C
:1041D00059FE26A000F056FE2946C4F8D45300220A
:1041E000D4F8CC0303F056F931E0D4F8780348B1A1
:1041F00001692046884703909DF80C0038BB0B20CE
:10420000207024E0267057A000F03CFE57A000F07C
:1042100039FE16A000F036FE2946C4F8D453002219
:10422000D4F8CC0303F036F911E0D4F8780370B178
:104230004169204688470AE02046FCF7BAF8D4F8DE
:10424000780320B1C16820468847C4F8788304B059
:104250000020BDE8F0870000555342204465766990
:104260006365204174746163686564000A0000003E
:10427000456E756D65726174696F6E20646F6E65F1
:104280002E000000546869732064657669636520B8
:10429000686173206F6E6C79203120636F6E666980
:1042A0006775726174696F6E2E0000004465666107
:1042B000756C7420636F6E66696775726174696F7F
:1042C0006E207365742E0000446576696365207204
:1042D000656D6F74652077616B65757020656E61C3
:1042E000626C656400000000446576696365206E59
:1042F0006F7420737570706F7274696E67202573A8
:1043000020636C6173732E004E6F20436C61737376
:1043100020686173206265656E20726567697374D9
:10432000657265642E000000257320636C617373F1
:1043300020737461727465642E0000004E6F2072E9
:1043400065676973746572656420636C617373205B
:10435000666F722074686973206465766963652E80
:10436000000000004552524F523A2000496E7661DB
:104370006C696420436C6173732044726976657262
:104380002E00000086B004464FF0FF3632466846E5
:10439000D4F8CC1303F034F89DE82A0003A82AC00F
:1043A00003991029F2D12046FFF7F2FDEEE7000055
:1043B00010B502460020002913D0D2F87C3353B147
:1043C0000DA000F05FFD0EA000F05CFD13A000F05A
:1043D00059FD022010BD0123C2F87C33C2F87413CA
:1043E00010BD05A000F04EFD0DA000F04BFD0BA090
:1043F00000F048FD022010BD4552524F523A2000B5
:104400004D617820436C617373204E756D626572E7
:104410002072656163686564000000000A000000A6
:10442000496E76616C696420436C617373206861C6
:104430006E646C650000000070B505460C460026F1
:1044400095F83803A04226D985F82043214618A0C4
:1044500000F018FD1EA000F015FD04EB840000EB39
:10446000C40005EB400404F243341AA0217800F0A4
:1044700009FD17A000F006FD61781AA000F002FD0A
:1044800013A000F0FFFCA1781AA000F0FBFC10A024
:1044900000F0F8FC09E01BA000F0F4FC1BA000F009
:1044A000F1FC0BA000F0EEFC0226304670BD0000CF
:1044B000537769746368696E6720746F20496E74FE
:1044C0006572666163652028232564290000000069
:1044D0000A000000436C617373202020203A2025DD
:1044E00078680000537562436C617373203A20252D
:1044F0007868000050726F746F636F6C203A2025EB
:10450000786800004552524F523A200043616E6E67
:104510006F742053656C6563742054686973204917
:104520006E746572666163652E0000008278012AF0
:1045300006D1002202740523437441828282C28222
:1045400000221146FDF7FABD8278012A06D1002229
:1045500002740923437441828282C282002211467E
:10456000FDF7ECBD8278012A06D1002202740323F4
:10457000437441828282C28200221146FDF7DEBD71
:1045800010B504462046FEF716FB01212046FEF733
:1045900073FA002010BD0000012908D00748022945
:1045A00006D0042907D0052901D1032101707047E5
:1045B0000221017070470121017070471000002036
:1045C0000020704730B58DB015460124002909D070
:1045D000012909D0022912D003291CD004240DB0CE
:1045E000204630BD0024FAE701466A461048FEF72F
:1045F00025FD0028F3D1019828600024EFE701464B
:104600006A460B48FEF71AFD0028E8D1BDF80800FD
:1046100028600024E3E701466A460548FEF70EFDE0
:104620000028DCD1BDF80800400A28600024D6E745
:10463000E407002030B58FB00546012400930B46F7
:1046400029461048FFF7ACF968B102AA29460D487F
:10465000FEF7F4FC9DF81500042806D0282804D0A5
:104660003A280CD101E0002409E007A000F00AFC80
:1046700007A000F007FC0CA000F004FC03240FB01E
:10468000204630BDE40700204552524F523A2000E8
:10469000555342204469736B206973206E6F7420F8
:1046A00072656164792100000A00000010B50124E0
:1046B00001460348FFF749FB00B10024204610BD26
:1046C000E407002030B58FB00546012400930B4667
:1046D00029461748FFF74CFB78B102AA294614482F
:1046E000FEF7ACFC9DF81500042813D0272806D04F
:1046F00028280FD03A2817D10CE0002414E00DA090
:1047000000F0C0FB0DA000F0BDFB14A000F0BAFB50
:10471000022409E007A000F0B5FB11A000F0B2FBF5
:104720000EA000F0AFFB03240FB0204630BD000008
:10473000E40700204552524F523A20005553422080
:104740004469736B206973205772697465207072B5
:104750006F74656374656421000000000A00000046
:10476000555342204469736B206973206E6F742027
:1047700072656164792100000FB410B50446089891
:1047800001281AD0E06840F04000E060204600F0C8
:1047900033F80C9941B3A16B21F48031A1630699E0
:1047A000012907D1A16841F00601A160A16841F08B
:1047B0002001A16010BC5DF814FBA06B20F48030D8
:1047C000A063E0680B490840E060E06820F4401016
:1047D000E0600F98012803D1E06840F48010E060A9
:1047E000204600F009F8DAE7A16B41F48031A163BB
:1047F000D5E70000BFFFBDFF00210C4A491C9142D4
:1048000001D9032070470369002BF7DA00210369FF
:1048100043F001030361491C914201D90320704711
:104820000369DB07F7D1002070470000400D03004B
:10483000816821F0010181600020704700EB411088
:1048400000F5A060044A0261016821F0804141F056
:1048500000410160002070470000088008B5D0F8D2
:1048600040240092009A22F02E020092009AD20474
:1048700006D4012904D1009A42F48052C0F84024A1
:10488000009AD20405D521B9009921F48051C0F8CD
:104890004014002008BD816841F0010181600020C2
:1048A00070470000002110220261054A491C914214
:1048B00001D9032070470369DB06F7D40020704755
:1048C000400D03000022202343EA811101610549C4
:1048D000521C8A4201D90320704703699B06F7D412
:1048E00000207047400D0300D0F8080480B27047E4
:1048F00008B5D0F8400400900098C0F3414008BDCE
:10490000406900F00100704710B5002200EB411132
:10491000D1F80035C3F381434FF47A74002B14D0DF
:10492000022B12D0D1F8003543F08043C1F8003596
:10493000D0F8100410F47F0F30D0D1F8000540F00B
:104940000040C1F80005002010BDD1F8003543F04B
:104950008043C1F80035C06A10F47F0F06D0D1F84B
:10496000000540F00040C1F80005ECE701F5A0614A
:10497000086820F000400860086840F000400860C7
:10498000086820F400400860A1F5A061521CA24212
:10499000D9D8D1F800050028F8DBD4E701F5A061EB
:1049A000086820F000400860086840F00040086097
:1049B000086820F400400860A1F5A061521CA242E2
:1049C000C1D8D1F800050028F8DBBCE72DE9F04399
:1049D000DDE907C5099F002600EB41144FF0FF38C1
:1049E000C4F80885002D1AD0012D40D0022D16D014
:1049F000032D2ED00126D0F8188401F00F090121D3
:104A000001FA09F148EA0108C0F81884816941F007
:104A100000718161100638D54FF4004036E040F255
:104A20009D48C4F80C855FEA026806D5D4F80C8569
:104A300048F48078C4F80C85DDE7D0F83C805FEA64
:104A4000C858D8D5D4F80C8548F06008C4F80C854F
:104A5000D1E740F29D68C4F80C855FEA0268CAD5C8
:104A6000D4F80C8548F48078C4F80C85C3E740F28C
:104A70002528C4F80C855FEA0268BCD5D4F80C85FB
:104A800048F4C078C4F80C85B5E70020BCF1020FEB
:104A900018D000214FF0FE5C0CEA83534FF4F04C29
:104AA0000CEAC22213434FF4402202EA8542134328
:104AB000C7F30A02134303430B43C4F80035032D25
:104AC00003D008E04FF40031E4E7D4F8000540F0EB
:104AD0000050C4F800053046BDE8F083D0F8140457
:104AE00080B27047F8B54D784FF4807CC36B4FF0BF
:104AF0000007DB0516D50B79A3B912B94B79012B49
:104B000002D0012A05D00DE02946FFF797FE0020CC
:104B1000F8BD00EB4514D4F80C3523F06003C4F85D
:104B20000C354F710E695EB10C8933195B1EB3FBF6
:104B3000F4F39BB2634504D9634624020C6100E0A0
:104B40000123CC7814B10C895C430C610C696FF0C3
:104B50006046C4F3120406EAC3431C438B7A4FF049
:104B6000C04606EA43731C4300EB4513C3F81045E7
:104B700012B1CC68C3F81445D0F8084444F30004DB
:104B8000641C03F5A0631D6825F000551D601D68B9
:104B900045EA44741C601D68244CA3F5A06325609D
:104BA000256825F080452560CD7825B1256845F438
:104BB0000045256003E0256825F40045256025684B
:104BC00045F0004525602468C3F800455ABBCA7803
:104BD0004ABB0B693BB3CA7932B1012A10D0022A11
:104BE00002D0032A18D10BE0DB1CC3F38F02C36A87
:104BF0009BB2934210D2826942F0200282610BE0A4
:104C0000DB1CC3F38F02D0F810349BB2934203D263
:104C1000826942F08062826100970A8A93B24A7880
:104C2000C96800F01BF90020F8BD00001400002046
:104C30000FB470B504460025C4F8005EA06B40F4C4
:104C40000010A063A06B20F40020A063A06B20F4F0
:104C50008020A063E06BC00510D50798032806D01C
:104C6000D4F8000420F00401C4F800140CE0D4F8D7
:104C7000000440F00401C4F8001405E0D4F8000476
:104C800020F00401C4F8001410212046FFF71AFE9A
:104C90002046FFF707FE0020461E06E004EB401109
:104CA000C1F80865C1F80C55401C06998142F5D839
:104CB00001212046FFF7D2FDC820FBF7E1FBA561EB
:104CC0006661E06BC00508D54FF4007060620D4866
:104CD000A0620D48C4F8000106E0802060620B4825
:104CE000A0620B48C4F80001089818B9A06940F008
:104CF0001000A061A06907490843A06170BC0020B2
:104D00005DF814FB000200010003E0008000600079
:104D1000E0004000080020A3D0F8002422F00302A5
:104D2000C0F80024D0F8002401F003031A43C0F8AF
:104D30000024012902D0022905D008E04BF6803179
:104D4000C0F8041403E041F27071C0F804140020AC
:104D50007047416980690840704710B503460846AE
:104D6000D21C9208002103F5805302E01C6810C099
:104D7000491C9142FAD310BD38B5044604F5886445
:104D800020680090009820F02E000090009840F4D9
:104D9000807020606420FBF773FB009820F4807023
:104DA00020600A20FBF76CFB002038BD10B5C268FC
:104DB00022F0C042C260012902D031B1012010BDF1
:104DC000C16841F00051C16003E0C16841F0804119
:104DD000C1603220FBF754FB002010BD30B5054602
:104DE00000242846FFF724FD10212846FFF76AFD1E
:104DF0002846FFF757FD002105EB4110D0F80025AC
:104E000042F0804222F0004222F40042C0F8002525
:104E1000491C0F29F0D900214FF47A7305EB411298
:104E2000D2F8000540F0804040F0004020F40040FF
:104E3000C2F80005641C9C4203D8D2F80005002883
:104E4000F8DB491C0F29E9D94FF0FF30C5F81404ED
:104E500068612846FFF71FFD002030BD10B5029C99
:104E6000002C0CD1DB1C9C08002300EB023000F569
:104E7000805002E004C902605B1CA342FAD3002008
:104E800010BDFEE70FB4054B10B503A9044A029804
:104E900000F028F810BC5DF814FB0000C96D000894
:104EA0000C0000200907090E002804DB00F1E020B7
:104EB00080F80014704700F00F0000F1E02080F847
:104EC000141D704702E008C8121F08C1002AFAD159
:104ED00070477047002001E001C1121F002AFBD17A
:104EE000704700002DE9FF4F8DB09B460F460446EA
:104EF000002606E025280BD05A460F999047641CDF
:104F0000761C20780028F5D111B03046BDE8F08F2E
:104F10000025A8460122984900E0054314F8013F06
:104F2000203B02FA03F00842F7D120782E2817D14F
:104F300014F8010F45F004052A280ED06FF02F0257
:104F40002078A0F1300109290AD808EB880102EB8A
:104F5000410100EB0108641CF2E757F8048B641C64
:104F600020786C280DD004DC4C2812D06A2811D18E
:104F700004E074280DD07A280CD10AE045F400151D
:104F800007E0617845F48015814202D1641C05F583
:104F90008015641C2278692A45D008DC002AB3D029
:104FA000582A69D0632A10D0642A08D13BE0702ABD
:104FB00067D0732A13D0752A5CD0782A5CD010464B
:104FC0005A460F999047761CD3E017F8040B8DF8DA
:104FD000000000208DF80100E946012003E057F8A9
:104FE000049B4FF0FF3069074FF0000501D40AE041
:104FF0006D1C45450DDA8542FADB19F805100029CC
:10500000F6D106E06D1C8542FCDB19F8051000297D
:10501000F8D12E4404E019F8010B5A460F99904735
:105020006D1EF8D2A5E00A200021CDE90801C5F3E4
:10503000025002280DD001CFC117031E71F10003E9
:105040000DDA4FF0000CD0EB0C006CEB01012D23BE
:1050500008E0FF1D27F00707F7E80201EDE72B0541
:1050600004D52B238DF8283001233BE0EB0739D002
:105070002023F7E70A2000E010200021CDE90801F5
:1050800007E01020002145F00405CDE908014FF0AC
:105090000808C5F3025002280FD001CF00214FF0BD
:1050A000000A2B071FD5702A0DD0DDE908C38CF04C
:1050B000100C5CEA030C0CD015E0FF1D27F007076D
:1050C000F7E80201EBE740228DF828204FF0010AB3
:1050D0000BE050EA010306D030238DF828308DF81C
:1050E000292002239A46582A04D024A20DF120092F
:1050F0000B9209E026A2F9E7DDE90823FBF7D2F8D5
:105100000B9B9B5C09F8013D50EA0102F4D1ADEB29
:10511000090020300890680701D44FF00108089971
:10512000884502DDA8EB010000E000208046002554
:1051300006E00AA85A46405D0F9990476D1C761C00
:105140005545F6DB04E030205A460F999047761C0F
:10515000B8F10001A8F10108F5DC05E019F8010B30
:105160005A460F999047761C0899481E08900029C6
:10517000F4DC641CC5E6000009280100303132333C
:105180003435363738396162636465660000000083
:10519000303132333435363738394142434445466D
:1051A000000000002DE9F05F804617469A46891EF0
:1051B000D8F8340000EB1139C1F3C80501F007003D
:1051C0004FF0010B0BFA00F0C4B2494609F1010996
:1051D000404602F0DAF810B10120BDE8F09F4FF42C
:1051E000007208EB050191F83C6016EA040000D05B
:1051F0000120504501D10220EFE7664081F83C6074
:1052000088F803B07F1E09D0600010F0FF04EAD1D7
:1052100001246D1C9542E4D30025D6E70020DCE78D
:1052200010B504460020E070401EA063204602F046
:10523000ACF808B1042010BD04F23A2001F098FF48
:10524000A0F52A41553901D0032010BD94F83C0047
:10525000E92805D0EB2816D194F83E00902812D109
:1052600004F1720001F04DFF0C49B1EB002F01D1A8
:10527000002010BD04F18E0001F043FF0849884270
:1052800001D1002010BD0B2206A104F13C0002F068
:1052900061F808B1022010BD012010BD0046415444
:1052A00046415433EB769045584641542020200027
:1052B00000E0401C02780AB18A42FAD100787047B7
:1052C000F0B500221546154E11E006EB02131C68DE
:1052D0005CB10768BC4209D15C688768BC4205D1F3
:1052E0009B68046BA34204D000E00125521C022AF3
:1052F000EBD3022A01D079B906E01DB9022901D009
:105300001220F0BD0020F0BD06EB02108089B0F540
:10531000807F01D00020F0BD1020F0BDC00E002025
:1053200030B50021054B002403EB011215688542BE
:1053300000D11460491C0229F6D330BDC00E0020F4
:1053400070B50168046D241D4D89500A40EAC350B0
:10535000590A2A460023FAF7A5FF02CC21B1884258
:1053600004D22168084470BD002070BD401A241D7D
:10537000F3E7891E026A921E8A4201D80020704714
:10538000426B408901FB0020704700002DE9F04787
:105390008146884608F11A0001F0EAFE10B10020AB
:1053A000BDE8F08798F8000000F03F00401E00EBD9
:1053B000800101EBC00401270025DFF860A01AF886
:1053C0000500404401F0D4FE06468FB1FF2C0BD2FD
:1053D000304601F005FA07462046641C39F81000F3
:1053E00001F0FEF9874201D00020D9E7374605E0F9
:1053F000A6F57F40FF3801D00020D1E76D1C0D2DB0
:10540000DDD398F80000400605D527B139F814001F
:1054100008B10020C4E70120C2E70000489400085A
:105420002DE9F047074688463D68B8F1000F08D0DF
:105430004146384601F048FD022809D20120BDE866
:10544000F087AE6916B1286AB04207D8012605E098
:10545000411CF4D0296A8142F1D8464628784FF0A1
:10546000FF39042809D03446641C286AA0424AD86F
:105470000224022E47D20020E1E7012231462846CD
:1054800001F024FA0446200012D0601C10D0012341
:105490001A4621462846FFF785FE02280AD0012831
:1054A0000AD0B8F1000F09D0F979022909D010E02B
:1054B0002046C4E70120C2E74846C0E70221F9714F
:1054C00007E0711C8C4204D0B968711AB9610321DC
:1054D000F971F979022931D008F101018C4206D124
:1054E000F96909B1491C00E00221F96126E0F86977
:1054F000012600B9FE6122464146384601F0CDF949
:10550000E0B9FE611AE02146384601F0DDFC38B111
:10551000012894D0411C92D0B442A5D100208EE73E
:105520004A462146284602F054FB38B9B8F1000F2C
:1055300004D022464146284602F04BFB20B1012808
:105540000FD0012420467AE7AC61D5E90701891E16
:10555000884201D8401EE861287940F00100287196
:10556000F0E74C46EEE700002DE9F35F8846D8F8F7
:10557000007000980068D0F80CA00024254628464A
:105580006D1C385C20280ED32F2807D05C2805D04E
:10559000FF2C0FD30620BDE8FC9F6D1C795D2F29E1
:1055A000FBD05C29F9D07919C8F8001020282AD23C
:1055B000042532E0C0B2A0F181017D290ED8294630
:1055C0006D1C795C01EB002080B2A1F140023F2A02
:1055D00004D380397F2901D30620DCE7012101F0C3
:1055E000B3F8064646B1802E08D2314667A0FFF7D1
:1055F0005FFE18B10620CEE70620CCE72046641CEB
:105600002AF81060BBE7002507E0601E3AF810009A
:10561000202801D02E2802D1641E002CF5D10020B4
:105620002AF814003CB100980B222021403001F0F0
:10563000A6FE002702E00620ADE77F1C3AF817001F
:105640002028FAD02E28F8D01FB145F0030500E03D
:10565000641E24B1601E3AF810002E28F8D14FF0D5
:105660000008C1464FF0080B38467F1C3AF810601E
:1056700006B3202E03D02E2E04D1A74202D045F02F
:105680000305F1E7D84501D2A74219D1BBF10B0FB1
:105690000ED0A74201D045F003050BD827464FF0A6
:1056A00008084FF00B0B4FEA89604FEA1069DBE7FF
:1056B00045F00305009890F84000E5283FD042E00F
:1056C000802E08D3304601F08BF8002101F03CF821
:1056D000064645F00205FF2E10D9ABF101008045CA
:1056E00003D345F00305D846BEE700994046084479
:1056F000320A08F1010880F8402018E026B131464E
:1057000025A0FFF7D5FD18B15F2645F003050EE093
:10571000A6F14100192802D849F0020907E0A6F1D4
:105720006100192803D849F00109203EB6B200995A
:105730004046084408F1010880F8406094E700986A
:10574000052180F84010BBF1080F03D14FEA8960B2
:105750004FEA1069C9F38100032803D06FEA0901F9
:10576000890701D145F00205A90709D409F0030111
:10577000012901D145F01005012801D145F00805A6
:10578000009880F84B50002005E70000222A3A3CA0
:105790003E3F7C7F000000002B2C3B3D5B5D00000A
:1057A0002DE9F05F0646894640220021304601F08F
:1057B000E6FD85203070C02086F8200000254FF0DF
:1057C0000108012740244FF0000A4FF0C10B601C74
:1057D00006F804B0441C06F800A027B139F815708B
:1057E0000FB16D1CEDB23019394602F0F3FBA41C69
:1057F000E006F2D108F1010808F0FF0839F81500B9
:105800000028E4D186F8235086F80180484603F04A
:10581000D5FD014606F12400BDE8F05F02F0DABBD9
:10582000401E022810D2094901EB00118889B0F509
:10583000807F00D1002008B1401E80B2888108B965
:10584000002008600020704702207047C00E002032
:105850002DE9F04104460F4626680021204600F05D
:10586000B6FAF8B900253046A16B01F08EFDC8B933
:105870003178042905D0E16B0A78E52A07D032B1E6
:1058800009E0E16B097841F3C011491C03D06D1C9C
:10589000BD4207D000E000250121204600F0AEF80F
:1058A0000028E0D0042800D10720BDE8F0812DE9D0
:1058B000F05F044626680021204600F088FA0028A0
:1058C00048D1307804280ED0FF27B9464FF0FF3A70
:1058D000C4F84CA03046A16B01F057FD80465FEA4A
:1058E00008004CD138E0F06803F068FD824629E0FA
:1058F0003069243001F03CFC504523D1306990F8E8
:10590000237040254FF0000815E0E80600D1AD1CDB
:105910003069284401F02CFC00F062FF8146F068F9
:1059200030F8180000F05CFF814506D17F1EFFB201
:10593000AD1C08F10108002FE7D11FB9F06830F85D
:10594000180030B10021204600F0E8F8B0F1000B5B
:10595000CED05846BDE8F09FE06B05786DB1C17AB6
:1059600001F03F01A171E52D03D00A0708D50F29E9
:1059700006D0FF27C4F84CA035E04FF004083BE008
:105980000F2901D0EFB120E094F84B1049062AD43A
:10599000690606D590F80D9005F0BF052F46216BDE
:1059A000E164BD420AD1417B494507D1F268014615
:1059B0001046FFF7EBFC08B17F1E00E0FF27FFB2A7
:1059C00011E002F03FFB484516D094F84B00C007A9
:1059D00006D10B2204F14001E06B01F0BBFC58B191
:1059E000FF27C4F84CA00021204600F007F88046AD
:1059F0005FEA08003FF46EAF4046ABE72DE9F047A1
:105A000005460F462C68D5F8308008F12008A86BB1
:105A1000002806D02178042906D04FF40011414512
:105A200005D80420BDE8F0874FF08051F7E75FEA22
:105A3000C8516AD1401CA863696B4FF0000929B1B5
:105A40006089401E10EA582F08D05EE02089B0EB34
:105A5000581F5AD8C5F838900420E3E7284601F0CB
:105A600033FA0646012E01D80220DBE7701C18D05D
:105A7000206AB04243D8B7B12846696BFFF7D0FC23
:105A80000646300013D0012E13D0701C13D0E879D5
:105A900040F00400E871204602F026FB68B10120C6
:105AA000C0E70120BEE7C5F838900420BAE7072018
:105AB000B8E70220B6E70120B4E74FF400720021F6
:105AC00004F13C0001F05BFC002731462046FFF763
:105AD00050FCA0634FF001090BE084F803902046CE
